{
  "contractName": "election",
  "abi": [
    {
      "inputs": [],
      "stateMutability": "nonpayable",
      "type": "constructor"
    },
    {
      "inputs": [
        {
          "internalType": "address",
          "name": "",
          "type": "address"
        }
      ],
      "name": "voters",
      "outputs": [
        {
          "internalType": "bool",
          "name": "",
          "type": "bool"
        }
      ],
      "stateMutability": "view",
      "type": "function",
      "constant": true
    },
    {
      "inputs": [
        {
          "internalType": "uint256",
          "name": "id",
          "type": "uint256"
        }
      ],
      "name": "castVote",
      "outputs": [],
      "stateMutability": "nonpayable",
      "type": "function"
    },
    {
      "inputs": [],
      "name": "viewVote",
      "outputs": [
        {
          "internalType": "uint256[2]",
          "name": "",
          "type": "uint256[2]"
        }
      ],
      "stateMutability": "view",
      "type": "function",
      "constant": true
    }
  ],
  "bytecode": "0x608060405234801561001057600080fd5b506000806000600281106100275761002661004c565b5b01819055506000806001600281106100425761004161004c565b5b018190555061007b565b7f4e487b7100000000000000000000000000000000000000000000000000000000600052603260045260246000fd5b61053c8061008a6000396000f3fe608060405234801561001057600080fd5b50600436106100415760003560e01c80633eb76b9c14610046578063a3ec138d14610062578063cf26b5a414610092575b600080fd5b610060600480360381019061005b919061029e565b6100b0565b005b61007c60048036038101906100779190610329565b6101d6565b6040516100899190610371565b60405180910390f35b61009a6101f6565b6040516100a79190610437565b60405180910390f35b600260003373ffffffffffffffffffffffffffffffffffffffff1673ffffffffffffffffffffffffffffffffffffffff16815260200190815260200160002060009054906101000a900460ff161561010757600080fd5b6001600260003373ffffffffffffffffffffffffffffffffffffffff1673ffffffffffffffffffffffffffffffffffffffff16815260200190815260200160002060006101000a81548160ff021916908315150217905550600081141561019a5760016000806002811061017e5761017d610452565b5b01600082825461018e91906104b0565b925050819055506101d3565b60018114156101d257600160006001600281106101ba576101b9610452565b5b0160008282546101ca91906104b0565b925050819055505b5b50565b60026020528060005260406000206000915054906101000a900460ff1681565b6101fe610241565b6000600280602002604051908101604052809291908260028015610237576020028201915b815481526020019060010190808311610223575b5050505050905090565b6040518060400160405280600290602082028036833780820191505090505090565b600080fd5b6000819050919050565b61027b81610268565b811461028657600080fd5b50565b60008135905061029881610272565b92915050565b6000602082840312156102b4576102b3610263565b5b60006102c284828501610289565b91505092915050565b600073ffffffffffffffffffffffffffffffffffffffff82169050919050565b60006102f6826102cb565b9050919050565b610306816102eb565b811461031157600080fd5b50565b600081359050610323816102fd565b92915050565b60006020828403121561033f5761033e610263565b5b600061034d84828501610314565b91505092915050565b60008115159050919050565b61036b81610356565b82525050565b60006020820190506103866000830184610362565b92915050565b600060029050919050565b600081905092915050565b6000819050919050565b6103b581610268565b82525050565b60006103c783836103ac565b60208301905092915050565b6000602082019050919050565b6103e98161038c565b6103f38184610397565b92506103fe826103a2565b8060005b8381101561042f57815161041687826103bb565b9650610421836103d3565b925050600181019050610402565b505050505050565b600060408201905061044c60008301846103e0565b92915050565b7f4e487b7100000000000000000000000000000000000000000000000000000000600052603260045260246000fd5b7f4e487b7100000000000000000000000000000000000000000000000000000000600052601160045260246000fd5b60006104bb82610268565b91506104c683610268565b9250827fffffffffffffffffffffffffffffffffffffffffffffffffffffffffffffffff038211156104fb576104fa610481565b5b82820190509291505056fea2646970667358221220b3d240c763bc1d43c86f7df39e83d191421a9583cbe78bfed6d0e3f3e290e12e64736f6c634300080a0033",
  "immutableReferences": {},
  "source": "pragma solidity 0.8.10;\r\n\r\ncontract election {\r\n\tuint[2] private votes;\r\n\tmapping(address => bool) public voters;\r\n\t\r\n\tconstructor() public {\r\n\t\tvotes[0]=0;\r\n\t\tvotes[1]=0;\r\n\t}\r\n\r\n\tfunction castVote(uint id) public {\r\n\t\t\r\n\t\trequire(!voters[msg.sender]);\r\n\t\tvoters[msg.sender]=true;\r\n\t\t\r\n\t\tif(id==0) {\r\n\t\t\tvotes[0]+=1;\r\n\t\t} else if(id==1) {\r\n\t\t\tvotes[1]+=1;\r\n\t\t}\r\n\t}\r\n\r\n\tfunction viewVote() public view returns(uint[2] memory) {\r\n\t\treturn(votes);\r\n\t}\r\n}",
  "sourcePath": "C:\\Users\\LENOVO\\Desktop\\voting-blockchain\\contracts\\Election.sol",
  "compiler": {
    "name": "solc",
    "version": "0.8.10+commit.fc410830.Emscripten.clang"
  },
  "schemaVersion": "3.4.3",
  "updatedAt": "2021-12-22T05:25:14.088Z",
  "networkType": "ethereum",
  "devdoc": {
    "kind": "dev",
    "methods": {},
    "version": 1
  },
  "userdoc": {
    "kind": "user",
    "methods": {},
    "version": 1
  }
}